{
  "contractName": "MetaDefi",
  "abi": [
    {
      "inputs": [],
      "stateMutability": "nonpayable",
      "type": "constructor"
    },
    {
      "anonymous": false,
      "inputs": [
        {
          "indexed": true,
          "internalType": "address",
          "name": "owner",
          "type": "address"
        },
        {
          "indexed": true,
          "internalType": "address",
          "name": "spender",
          "type": "address"
        },
        {
          "indexed": false,
          "internalType": "uint256",
          "name": "value",
          "type": "uint256"
        }
      ],
      "name": "Approval",
      "type": "event"
    },
    {
      "anonymous": false,
      "inputs": [
        {
          "indexed": true,
          "internalType": "address",
          "name": "account",
          "type": "address"
        },
        {
          "indexed": false,
          "internalType": "bool",
          "name": "isFeeless",
          "type": "bool"
        }
      ],
      "name": "MarkedFeeless",
      "type": "event"
    },
    {
      "anonymous": false,
      "inputs": [
        {
          "indexed": true,
          "internalType": "address",
          "name": "previousOwner",
          "type": "address"
        },
        {
          "indexed": true,
          "internalType": "address",
          "name": "newOwner",
          "type": "address"
        }
      ],
      "name": "OwnershipTransferred",
      "type": "event"
    },
    {
      "anonymous": false,
      "inputs": [
        {
          "indexed": true,
          "internalType": "address",
          "name": "user",
          "type": "address"
        },
        {
          "indexed": false,
          "internalType": "uint256",
          "name": "amount",
          "type": "uint256"
        },
        {
          "indexed": false,
          "internalType": "uint256",
          "name": "index",
          "type": "uint256"
        },
        {
          "indexed": false,
          "internalType": "uint256",
          "name": "timestamp",
          "type": "uint256"
        }
      ],
      "name": "Staked",
      "type": "event"
    },
    {
      "anonymous": false,
      "inputs": [
        {
          "indexed": true,
          "internalType": "address",
          "name": "from",
          "type": "address"
        },
        {
          "indexed": true,
          "internalType": "address",
          "name": "to",
          "type": "address"
        },
        {
          "indexed": false,
          "internalType": "uint256",
          "name": "value",
          "type": "uint256"
        }
      ],
      "name": "Transfer",
      "type": "event"
    },
    {
      "inputs": [
        {
          "internalType": "address",
          "name": "_staker",
          "type": "address"
        }
      ],
      "name": "hasStake",
      "outputs": [
        {
          "components": [
            {
              "internalType": "uint256",
              "name": "total_amount",
              "type": "uint256"
            },
            {
              "components": [
                {
                  "internalType": "address",
                  "name": "user",
                  "type": "address"
                },
                {
                  "internalType": "uint256",
                  "name": "amount",
                  "type": "uint256"
                },
                {
                  "internalType": "uint256",
                  "name": "since",
                  "type": "uint256"
                },
                {
                  "internalType": "uint256",
                  "name": "claimable",
                  "type": "uint256"
                }
              ],
              "internalType": "struct Stakeable.Stake[]",
              "name": "stakes",
              "type": "tuple[]"
            }
          ],
          "internalType": "struct Stakeable.StakingSummary",
          "name": "",
          "type": "tuple"
        }
      ],
      "stateMutability": "view",
      "type": "function",
      "constant": true
    },
    {
      "inputs": [],
      "name": "owner",
      "outputs": [
        {
          "internalType": "address",
          "name": "",
          "type": "address"
        }
      ],
      "stateMutability": "view",
      "type": "function",
      "constant": true
    },
    {
      "inputs": [],
      "name": "renounceOwnership",
      "outputs": [],
      "stateMutability": "nonpayable",
      "type": "function"
    },
    {
      "inputs": [
        {
          "internalType": "address",
          "name": "newOwner",
          "type": "address"
        }
      ],
      "name": "transferOwnership",
      "outputs": [],
      "stateMutability": "nonpayable",
      "type": "function"
    },
    {
      "inputs": [],
      "name": "name",
      "outputs": [
        {
          "internalType": "string",
          "name": "",
          "type": "string"
        }
      ],
      "stateMutability": "view",
      "type": "function",
      "constant": true
    },
    {
      "inputs": [],
      "name": "symbol",
      "outputs": [
        {
          "internalType": "string",
          "name": "",
          "type": "string"
        }
      ],
      "stateMutability": "view",
      "type": "function",
      "constant": true
    },
    {
      "inputs": [],
      "name": "decimals",
      "outputs": [
        {
          "internalType": "uint8",
          "name": "",
          "type": "uint8"
        }
      ],
      "stateMutability": "view",
      "type": "function",
      "constant": true
    },
    {
      "inputs": [],
      "name": "totalSupply",
      "outputs": [
        {
          "internalType": "uint256",
          "name": "",
          "type": "uint256"
        }
      ],
      "stateMutability": "pure",
      "type": "function",
      "constant": true
    },
    {
      "inputs": [
        {
          "internalType": "address",
          "name": "account",
          "type": "address"
        }
      ],
      "name": "balanceOf",
      "outputs": [
        {
          "internalType": "uint256",
          "name": "",
          "type": "uint256"
        }
      ],
      "stateMutability": "view",
      "type": "function",
      "constant": true
    },
    {
      "inputs": [
        {
          "internalType": "address",
          "name": "recipient",
          "type": "address"
        },
        {
          "internalType": "uint256",
          "name": "amount",
          "type": "uint256"
        }
      ],
      "name": "transfer",
      "outputs": [
        {
          "internalType": "bool",
          "name": "",
          "type": "bool"
        }
      ],
      "stateMutability": "nonpayable",
      "type": "function"
    },
    {
      "inputs": [
        {
          "internalType": "address",
          "name": "owner",
          "type": "address"
        },
        {
          "internalType": "address",
          "name": "spender",
          "type": "address"
        }
      ],
      "name": "allowance",
      "outputs": [
        {
          "internalType": "uint256",
          "name": "",
          "type": "uint256"
        }
      ],
      "stateMutability": "view",
      "type": "function",
      "constant": true
    },
    {
      "inputs": [
        {
          "internalType": "address",
          "name": "spender",
          "type": "address"
        },
        {
          "internalType": "uint256",
          "name": "amount",
          "type": "uint256"
        }
      ],
      "name": "approve",
      "outputs": [
        {
          "internalType": "bool",
          "name": "",
          "type": "bool"
        }
      ],
      "stateMutability": "nonpayable",
      "type": "function"
    },
    {
      "inputs": [
        {
          "internalType": "address",
          "name": "sender",
          "type": "address"
        },
        {
          "internalType": "address",
          "name": "recipient",
          "type": "address"
        },
        {
          "internalType": "uint256",
          "name": "amount",
          "type": "uint256"
        }
      ],
      "name": "transferFrom",
      "outputs": [
        {
          "internalType": "bool",
          "name": "",
          "type": "bool"
        }
      ],
      "stateMutability": "nonpayable",
      "type": "function"
    },
    {
      "inputs": [
        {
          "internalType": "address",
          "name": "spender",
          "type": "address"
        },
        {
          "internalType": "uint256",
          "name": "addedValue",
          "type": "uint256"
        }
      ],
      "name": "increaseAllowance",
      "outputs": [
        {
          "internalType": "bool",
          "name": "",
          "type": "bool"
        }
      ],
      "stateMutability": "nonpayable",
      "type": "function"
    },
    {
      "inputs": [
        {
          "internalType": "address",
          "name": "spender",
          "type": "address"
        },
        {
          "internalType": "uint256",
          "name": "subtractedValue",
          "type": "uint256"
        }
      ],
      "name": "decreaseAllowance",
      "outputs": [
        {
          "internalType": "bool",
          "name": "",
          "type": "bool"
        }
      ],
      "stateMutability": "nonpayable",
      "type": "function"
    },
    {
      "inputs": [
        {
          "internalType": "address",
          "name": "account",
          "type": "address"
        }
      ],
      "name": "isExcluded",
      "outputs": [
        {
          "internalType": "bool",
          "name": "",
          "type": "bool"
        }
      ],
      "stateMutability": "view",
      "type": "function",
      "constant": true
    },
    {
      "inputs": [
        {
          "internalType": "address",
          "name": "account",
          "type": "address"
        }
      ],
      "name": "isFeeless",
      "outputs": [
        {
          "internalType": "bool",
          "name": "",
          "type": "bool"
        }
      ],
      "stateMutability": "view",
      "type": "function",
      "constant": true
    },
    {
      "inputs": [],
      "name": "totalFees",
      "outputs": [
        {
          "internalType": "uint256",
          "name": "",
          "type": "uint256"
        }
      ],
      "stateMutability": "view",
      "type": "function",
      "constant": true
    },
    {
      "inputs": [
        {
          "internalType": "uint256",
          "name": "tAmount",
          "type": "uint256"
        }
      ],
      "name": "reflect",
      "outputs": [],
      "stateMutability": "nonpayable",
      "type": "function"
    },
    {
      "inputs": [
        {
          "internalType": "uint256",
          "name": "tAmount",
          "type": "uint256"
        },
        {
          "internalType": "bool",
          "name": "deductTransferFee",
          "type": "bool"
        }
      ],
      "name": "reflectionFromToken",
      "outputs": [
        {
          "internalType": "uint256",
          "name": "",
          "type": "uint256"
        }
      ],
      "stateMutability": "view",
      "type": "function",
      "constant": true
    },
    {
      "inputs": [
        {
          "internalType": "uint256",
          "name": "rAmount",
          "type": "uint256"
        }
      ],
      "name": "tokenFromReflection",
      "outputs": [
        {
          "internalType": "uint256",
          "name": "",
          "type": "uint256"
        }
      ],
      "stateMutability": "view",
      "type": "function",
      "constant": true
    },
    {
      "inputs": [
        {
          "internalType": "address",
          "name": "account",
          "type": "address"
        }
      ],
      "name": "excludeAccount",
      "outputs": [],
      "stateMutability": "nonpayable",
      "type": "function"
    },
    {
      "inputs": [
        {
          "internalType": "address",
          "name": "account",
          "type": "address"
        }
      ],
      "name": "includeAccount",
      "outputs": [],
      "stateMutability": "nonpayable",
      "type": "function"
    },
    {
      "inputs": [
        {
          "internalType": "address",
          "name": "account",
          "type": "address"
        },
        {
          "internalType": "bool",
          "name": "isFeeless_",
          "type": "bool"
        }
      ],
      "name": "setFeeless",
      "outputs": [],
      "stateMutability": "nonpayable",
      "type": "function"
    },
    {
      "inputs": [
        {
          "internalType": "uint256",
          "name": "fee",
          "type": "uint256"
        }
      ],
      "name": "setFeePercent",
      "outputs": [],
      "stateMutability": "nonpayable",
      "type": "function"
    },
    {
      "inputs": [
        {
          "internalType": "address",
          "name": "account",
          "type": "address"
        },
        {
          "internalType": "uint256",
          "name": "amount",
          "type": "uint256"
        }
      ],
      "name": "burn",
      "outputs": [
        {
          "internalType": "bool",
          "name": "",
          "type": "bool"
        }
      ],
      "stateMutability": "nonpayable",
      "type": "function"
    },
    {
      "inputs": [
        {
          "internalType": "uint256",
          "name": "_amount",
          "type": "uint256"
        }
      ],
      "name": "stake",
      "outputs": [],
      "stateMutability": "nonpayable",
      "type": "function"
    },
    {
      "inputs": [
        {
          "internalType": "uint256",
          "name": "amount",
          "type": "uint256"
        },
        {
          "internalType": "uint256",
          "name": "stake_index",
          "type": "uint256"
        }
      ],
      "name": "withdrawStake",
      "outputs": [],
      "stateMutability": "nonpayable",
      "type": "function"
    }
  ],
  "bytecode": "0x60806040526103e86001556706f05b59d3b200006000196200002291906200045f565b600019620000319190620004c6565b600a556002600c556040518060400160405280600881526020017f4d65746144656669000000000000000000000000000000000000000000000000815250600d90805190602001906200008692919062000376565b506040518060400160405280600381526020017f4d54440000000000000000000000000000000000000000000000000000000000815250600e9080519060200190620000d492919062000376565b506009600f60006101000a81548160ff021916908360ff160217905550348015620000fe57600080fd5b506000620001116200036e60201b60201c565b9050806000806101000a81548173ffffffffffffffffffffffffffffffffffffffff021916908373ffffffffffffffffffffffffffffffffffffffff1602179055508073ffffffffffffffffffffffffffffffffffffffff16600073ffffffffffffffffffffffffffffffffffffffff167f8be0079c531659141344cd1fd0a4f28419497f9722a3daafe3b4186f6b6457e060405160405180910390a350600260018160018154018082558091505003906000526020600020905050600a5460046000620001e46200036e60201b60201c565b73ffffffffffffffffffffffffffffffffffffffff1673ffffffffffffffffffffffffffffffffffffffff16815260200190815260200160002081905550600160096000620002386200036e60201b60201c565b73ffffffffffffffffffffffffffffffffffffffff1673ffffffffffffffffffffffffffffffffffffffff16815260200190815260200160002060006101000a81548160ff021916908315150217905550620002996200036e60201b60201c565b73ffffffffffffffffffffffffffffffffffffffff16600073ffffffffffffffffffffffffffffffffffffffff167fddf252ad1be2c89b69c2b068fc378daa952ba7f163c4a11628f55a4df523b3ef6706f05b59d3b2000060405162000300919062000512565b60405180910390a3620003186200036e60201b60201c565b73ffffffffffffffffffffffffffffffffffffffff167f7ac6ecd1618f9667ca3febe8387f093b45ee8396999617a7accf37f99c32d75460016040516200036091906200054c565b60405180910390a2620005ce565b600033905090565b828054620003849062000598565b90600052602060002090601f016020900481019282620003a85760008555620003f4565b82601f10620003c357805160ff1916838001178555620003f4565b82800160010185558215620003f4579182015b82811115620003f3578251825591602001919060010190620003d6565b5b50905062000403919062000407565b5090565b5b808211156200042257600081600090555060010162000408565b5090565b6000819050919050565b7f4e487b7100000000000000000000000000000000000000000000000000000000600052601260045260246000fd5b60006200046c8262000426565b9150620004798362000426565b9250826200048c576200048b62000430565b5b828206905092915050565b7f4e487b7100000000000000000000000000000000000000000000000000000000600052601160045260246000fd5b6000620004d38262000426565b9150620004e08362000426565b925082821015620004f657620004f562000497565b5b828203905092915050565b6200050c8162000426565b82525050565b600060208201905062000529600083018462000501565b92915050565b60008115159050919050565b62000546816200052f565b82525050565b60006020820190506200056360008301846200053b565b92915050565b7f4e487b7100000000000000000000000000000000000000000000000000000000600052602260045260246000fd5b60006002820490506001821680620005b157607f821691505b60208210811415620005c857620005c762000569565b5b50919050565b6150c380620005de6000396000f3fe608060405234801561001057600080fd5b50600436106101c45760003560e01c806395d89b41116100f9578063dd62ed3e11610097578063f1fdf46911610071578063f1fdf46914610567578063f2cc0c1814610583578063f2fde38b1461059f578063f84354f1146105bb576101c4565b8063dd62ed3e146104eb578063e73e14bf1461051b578063efbc9de71461054b576101c4565b8063a694fc3a116100d3578063a694fc3a1461043f578063a9059cbb1461045b578063ae74a1b51461048b578063cba0e996146104bb576101c4565b806395d89b41146103c15780639dc29fac146103df578063a457c2d71461040f576101c4565b8063313ce5671161016657806370a082311161014057806370a082311461034d578063715018a61461037d5780637ce3489b146103875780638da5cb5b146103a3576101c4565b8063313ce567146102cf57806339509351146102ed5780634549b0391461031d576101c4565b806313114a9d116101a257806313114a9d1461023357806318160ddd1461025157806323b872dd1461026f5780632d8381191461029f576101c4565b8063053ab182146101c957806306fdde03146101e5578063095ea7b314610203575b600080fd5b6101e360048036038101906101de9190613c79565b6105d7565b005b6101ed61073c565b6040516101fa9190613d3f565b60405180910390f35b61021d60048036038101906102189190613dbf565b6107ce565b60405161022a9190613e1a565b60405180910390f35b61023b6107ec565b6040516102489190613e44565b60405180910390f35b6102596107f6565b6040516102669190613e44565b60405180910390f35b61028960048036038101906102849190613e5f565b610806565b6040516102969190613e1a565b60405180910390f35b6102b960048036038101906102b49190613c79565b610907565b6040516102c69190613e44565b60405180910390f35b6102d761096e565b6040516102e49190613ece565b60405180910390f35b61030760048036038101906103029190613dbf565b610985565b6040516103149190613e1a565b60405180910390f35b61033760048036038101906103329190613f15565b610a31565b6040516103449190613e44565b60405180910390f35b61036760048036038101906103629190613f55565b610ab9565b6040516103749190613e44565b60405180910390f35b610385610ba4565b005b6103a1600480360381019061039c9190613c79565b610cde565b005b6103ab610dec565b6040516103b89190613f91565b60405180910390f35b6103c9610e15565b6040516103d69190613d3f565b60405180910390f35b6103f960048036038101906103f49190613dbf565b610ea7565b6040516104069190613e1a565b60405180910390f35b61042960048036038101906104249190613dbf565b610f39565b6040516104369190613e1a565b60405180910390f35b61045960048036038101906104549190613c79565b61102d565b005b61047560048036038101906104709190613dbf565b6110c4565b6040516104829190613e1a565b60405180910390f35b6104a560048036038101906104a09190613f55565b6110e2565b6040516104b29190613e1a565b60405180910390f35b6104d560048036038101906104d09190613f55565b611138565b6040516104e29190613e1a565b60405180910390f35b61050560048036038101906105009190613fac565b61118e565b6040516105129190613e44565b60405180910390f35b61053560048036038101906105309190613f55565b611215565b604051610542919061414b565b60405180910390f35b6105656004803603810190610560919061416d565b611422565b005b610581600480360381019061057c91906141ad565b611547565b005b61059d60048036038101906105989190613f55565b611564565b005b6105b960048036038101906105b49190613f55565b61186e565b005b6105d560048036038101906105d09190613f55565b611a17565b005b60006105e1611d53565b9050600760008273ffffffffffffffffffffffffffffffffffffffff1673ffffffffffffffffffffffffffffffffffffffff16815260200190815260200160002060009054906101000a900460ff1615610670576040517f08c379a00000000000000000000000000000000000000000000000000000000081526004016106679061425f565b60405180910390fd5b600061067b83611d5b565b50505050905080600460008473ffffffffffffffffffffffffffffffffffffffff1673ffffffffffffffffffffffffffffffffffffffff168152602001908152602001600020546106cc91906142ae565b600460008473ffffffffffffffffffffffffffffffffffffffff1673ffffffffffffffffffffffffffffffffffffffff1681526020019081526020016000208190555080600a5461071d91906142ae565b600a8190555082600b5461073191906142e2565b600b81905550505050565b6060600d805461074b90614367565b80601f016020809104026020016040519081016040528092919081815260200182805461077790614367565b80156107c45780601f10610799576101008083540402835291602001916107c4565b820191906000526020600020905b8154815290600101906020018083116107a757829003601f168201915b5050505050905090565b60006107e26107db611d53565b8484611d81565b6001905092915050565b6000600b54905090565b60006706f05b59d3b20000905090565b6000610813848484611f4c565b6000600660008673ffffffffffffffffffffffffffffffffffffffff1673ffffffffffffffffffffffffffffffffffffffff168152602001908152602001600020600061085e611d53565b73ffffffffffffffffffffffffffffffffffffffff1673ffffffffffffffffffffffffffffffffffffffff168152602001908152602001600020549050828110156108de576040517f08c379a00000000000000000000000000000000000000000000000000000000081526004016108d59061440b565b60405180910390fd5b6108fb856108ea611d53565b85846108f691906142ae565b611d81565b60019150509392505050565b6000600a5482111561094e576040517f08c379a00000000000000000000000000000000000000000000000000000000081526004016109459061449d565b60405180910390fd5b6000610958612363565b9050808361096691906144ec565b915050919050565b6000600f60009054906101000a900460ff16905090565b6000610a27610992611d53565b8484600660006109a0611d53565b73ffffffffffffffffffffffffffffffffffffffff1673ffffffffffffffffffffffffffffffffffffffff16815260200190815260200160002060008873ffffffffffffffffffffffffffffffffffffffff1673ffffffffffffffffffffffffffffffffffffffff16815260200190815260200160002054610a2291906142e2565b611d81565b6001905092915050565b60006706f05b59d3b20000831115610a7e576040517f08c379a0000000000000000000000000000000000000000000000000000000008152600401610a7590614569565b60405180910390fd5b81610a9d576000610a8e84611d5b565b50505050905080915050610ab3565b6000610aa884611d5b565b505050915050809150505b92915050565b6000600760008373ffffffffffffffffffffffffffffffffffffffff1673ffffffffffffffffffffffffffffffffffffffff16815260200190815260200160002060009054906101000a900460ff1615610b5457600560008373ffffffffffffffffffffffffffffffffffffffff1673ffffffffffffffffffffffffffffffffffffffff168152602001908152602001600020549050610b9f565b610b9c600460008473ffffffffffffffffffffffffffffffffffffffff1673ffffffffffffffffffffffffffffffffffffffff16815260200190815260200160002054610907565b90505b919050565b610bac611d53565b73ffffffffffffffffffffffffffffffffffffffff16610bca610dec565b73ffffffffffffffffffffffffffffffffffffffff1614610c20576040517f08c379a0000000000000000000000000000000000000000000000000000000008152600401610c17906145d5565b60405180910390fd5b600073ffffffffffffffffffffffffffffffffffffffff1660008054906101000a900473ffffffffffffffffffffffffffffffffffffffff1673ffffffffffffffffffffffffffffffffffffffff167f8be0079c531659141344cd1fd0a4f28419497f9722a3daafe3b4186f6b6457e060405160405180910390a360008060006101000a81548173ffffffffffffffffffffffffffffffffffffffff021916908373ffffffffffffffffffffffffffffffffffffffff160217905550565b610ce6611d53565b73ffffffffffffffffffffffffffffffffffffffff16610d04610dec565b73ffffffffffffffffffffffffffffffffffffffff1614610d5a576040517f08c379a0000000000000000000000000000000000000000000000000000000008152600401610d51906145d5565b60405180910390fd5b6001811015610d9e576040517f08c379a0000000000000000000000000000000000000000000000000000000008152600401610d9590614641565b60405180910390fd5b600a811115610de2576040517f08c379a0000000000000000000000000000000000000000000000000000000008152600401610dd9906146ad565b60405180910390fd5b80600c8190555050565b60008060009054906101000a900473ffffffffffffffffffffffffffffffffffffffff16905090565b6060600e8054610e2490614367565b80601f0160208091040260200160405190810160405280929190818152602001828054610e5090614367565b8015610e9d5780601f10610e7257610100808354040283529160200191610e9d565b820191906000526020600020905b815481529060010190602001808311610e8057829003601f168201915b5050505050905090565b6000610eb1611d53565b73ffffffffffffffffffffffffffffffffffffffff16610ecf610dec565b73ffffffffffffffffffffffffffffffffffffffff1614610f25576040517f08c379a0000000000000000000000000000000000000000000000000000000008152600401610f1c906145d5565b60405180910390fd5b610f2f8383612387565b6001905092915050565b60008060066000610f48611d53565b73ffffffffffffffffffffffffffffffffffffffff1673ffffffffffffffffffffffffffffffffffffffff16815260200190815260200160002060008573ffffffffffffffffffffffffffffffffffffffff1673ffffffffffffffffffffffffffffffffffffffff16815260200190815260200160002054905082811015611005576040517f08c379a0000000000000000000000000000000000000000000000000000000008152600401610ffc9061473f565b60405180910390fd5b611022611010611d53565b85858461101d91906142ae565b611d81565b600191505092915050565b600460003373ffffffffffffffffffffffffffffffffffffffff1673ffffffffffffffffffffffffffffffffffffffff1681526020019081526020016000205481106110ae576040517f08c379a00000000000000000000000000000000000000000000000000000000081526004016110a5906147d1565b60405180910390fd5b6110b781612571565b6110c13382612387565b50565b60006110d86110d1611d53565b8484611f4c565b6001905092915050565b6000600960008373ffffffffffffffffffffffffffffffffffffffff1673ffffffffffffffffffffffffffffffffffffffff16815260200190815260200160002060009054906101000a900460ff169050919050565b6000600760008373ffffffffffffffffffffffffffffffffffffffff1673ffffffffffffffffffffffffffffffffffffffff16815260200190815260200160002060009054906101000a900460ff169050919050565b6000600660008473ffffffffffffffffffffffffffffffffffffffff1673ffffffffffffffffffffffffffffffffffffffff16815260200190815260200160002060008373ffffffffffffffffffffffffffffffffffffffff1673ffffffffffffffffffffffffffffffffffffffff16815260200190815260200160002054905092915050565b61121d613c24565b6000806040518060400160405280600081526020016002600360008873ffffffffffffffffffffffffffffffffffffffff1673ffffffffffffffffffffffffffffffffffffffff1681526020019081526020016000205481548110611285576112846147f1565b5b9060005260206000209060020201600101805480602002602001604051908101604052809291908181526020016000905b8282101561135c57838290600052602060002090600402016040518060800160405290816000820160009054906101000a900473ffffffffffffffffffffffffffffffffffffffff1673ffffffffffffffffffffffffffffffffffffffff1673ffffffffffffffffffffffffffffffffffffffff1681526020016001820154815260200160028201548152602001600382015481525050815260200190600101906112b6565b50505050815250905060005b81602001515181101561140d57600061139e83602001518381518110611391576113906147f1565b5b6020026020010151612756565b905080836020015183815181106113b8576113b76147f1565b5b60200260200101516060018181525050826020015182815181106113df576113de6147f1565b5b602002602001015160200151846113f691906142e2565b93505060018161140691906142e2565b9050611368565b50818160000181815250508092505050919050565b61142a611d53565b73ffffffffffffffffffffffffffffffffffffffff16611448610dec565b73ffffffffffffffffffffffffffffffffffffffff161461149e576040517f08c379a0000000000000000000000000000000000000000000000000000000008152600401611495906145d5565b60405180910390fd5b80600960008473ffffffffffffffffffffffffffffffffffffffff1673ffffffffffffffffffffffffffffffffffffffff16815260200190815260200160002060006101000a81548160ff0219169083151502179055508173ffffffffffffffffffffffffffffffffffffffff167f7ac6ecd1618f9667ca3febe8387f093b45ee8396999617a7accf37f99c32d7548260405161153b9190613e1a565b60405180910390a25050565b60006115538383612798565b905061155f3382612a61565b505050565b61156c611d53565b73ffffffffffffffffffffffffffffffffffffffff1661158a610dec565b73ffffffffffffffffffffffffffffffffffffffff16146115e0576040517f08c379a00000000000000000000000000000000000000000000000000000000081526004016115d7906145d5565b60405180910390fd5b3073ffffffffffffffffffffffffffffffffffffffff168173ffffffffffffffffffffffffffffffffffffffff16141561164f576040517f08c379a00000000000000000000000000000000000000000000000000000000081526004016116469061486c565b60405180910390fd5b600760008273ffffffffffffffffffffffffffffffffffffffff1673ffffffffffffffffffffffffffffffffffffffff16815260200190815260200160002060009054906101000a900460ff16156116dc576040517f08c379a00000000000000000000000000000000000000000000000000000000081526004016116d3906148d8565b60405180910390fd5b6000600460008373ffffffffffffffffffffffffffffffffffffffff1673ffffffffffffffffffffffffffffffffffffffff1681526020019081526020016000205411156117b05761176c600460008373ffffffffffffffffffffffffffffffffffffffff1673ffffffffffffffffffffffffffffffffffffffff16815260200190815260200160002054610907565b600560008373ffffffffffffffffffffffffffffffffffffffff1673ffffffffffffffffffffffffffffffffffffffff168152602001908152602001600020819055505b6001600760008373ffffffffffffffffffffffffffffffffffffffff1673ffffffffffffffffffffffffffffffffffffffff16815260200190815260200160002060006101000a81548160ff0219169083151502179055506008819080600181540180825580915050600190039060005260206000200160009091909190916101000a81548173ffffffffffffffffffffffffffffffffffffffff021916908373ffffffffffffffffffffffffffffffffffffffff16021790555050565b611876611d53565b73ffffffffffffffffffffffffffffffffffffffff16611894610dec565b73ffffffffffffffffffffffffffffffffffffffff16146118ea576040517f08c379a00000000000000000000000000000000000000000000000000000000081526004016118e1906145d5565b60405180910390fd5b600073ffffffffffffffffffffffffffffffffffffffff168173ffffffffffffffffffffffffffffffffffffffff16141561195a576040517f08c379a00000000000000000000000000000000000000000000000000000000081526004016119519061496a565b60405180910390fd5b8073ffffffffffffffffffffffffffffffffffffffff1660008054906101000a900473ffffffffffffffffffffffffffffffffffffffff1673ffffffffffffffffffffffffffffffffffffffff167f8be0079c531659141344cd1fd0a4f28419497f9722a3daafe3b4186f6b6457e060405160405180910390a3806000806101000a81548173ffffffffffffffffffffffffffffffffffffffff021916908373ffffffffffffffffffffffffffffffffffffffff16021790555050565b611a1f611d53565b73ffffffffffffffffffffffffffffffffffffffff16611a3d610dec565b73ffffffffffffffffffffffffffffffffffffffff1614611a93576040517f08c379a0000000000000000000000000000000000000000000000000000000008152600401611a8a906145d5565b60405180910390fd5b600760008273ffffffffffffffffffffffffffffffffffffffff1673ffffffffffffffffffffffffffffffffffffffff16815260200190815260200160002060009054906101000a900460ff16611b1f576040517f08c379a0000000000000000000000000000000000000000000000000000000008152600401611b16906149d6565b60405180910390fd5b6000600880549050905060005b81811015611d4e578273ffffffffffffffffffffffffffffffffffffffff1660088281548110611b5f57611b5e6147f1565b5b9060005260206000200160009054906101000a900473ffffffffffffffffffffffffffffffffffffffff1673ffffffffffffffffffffffffffffffffffffffff161415611d3b5760086001600880549050611bba91906142ae565b81548110611bcb57611bca6147f1565b5b9060005260206000200160009054906101000a900473ffffffffffffffffffffffffffffffffffffffff1660088281548110611c0a57611c096147f1565b5b9060005260206000200160006101000a81548173ffffffffffffffffffffffffffffffffffffffff021916908373ffffffffffffffffffffffffffffffffffffffff1602179055506000600560008573ffffffffffffffffffffffffffffffffffffffff1673ffffffffffffffffffffffffffffffffffffffff168152602001908152602001600020819055506000600760008573ffffffffffffffffffffffffffffffffffffffff1673ffffffffffffffffffffffffffffffffffffffff16815260200190815260200160002060006101000a81548160ff0219169083151502179055506008805480611d0157611d006149f6565b5b6001900381819060005260206000200160006101000a81549073ffffffffffffffffffffffffffffffffffffffff02191690559055611d4e565b8080611d4690614a25565b915050611b2c565b505050565b600033905090565b6000806000806000611d6e866000612bc9565b9450945094509450945091939590929450565b600073ffffffffffffffffffffffffffffffffffffffff168373ffffffffffffffffffffffffffffffffffffffff161415611df1576040517f08c379a0000000000000000000000000000000000000000000000000000000008152600401611de890614ae0565b60405180910390fd5b600073ffffffffffffffffffffffffffffffffffffffff168273ffffffffffffffffffffffffffffffffffffffff161415611e61576040517f08c379a0000000000000000000000000000000000000000000000000000000008152600401611e5890614b72565b60405180910390fd5b80600660008573ffffffffffffffffffffffffffffffffffffffff1673ffffffffffffffffffffffffffffffffffffffff16815260200190815260200160002060008473ffffffffffffffffffffffffffffffffffffffff1673ffffffffffffffffffffffffffffffffffffffff168152602001908152602001600020819055508173ffffffffffffffffffffffffffffffffffffffff168373ffffffffffffffffffffffffffffffffffffffff167f8c5be1e5ebec7d5bd14f71427d1e84f3dd0314c0f7b2291e5b200ac8c7c3b92583604051611f3f9190613e44565b60405180910390a3505050565b600073ffffffffffffffffffffffffffffffffffffffff168373ffffffffffffffffffffffffffffffffffffffff161415611fbc576040517f08c379a0000000000000000000000000000000000000000000000000000000008152600401611fb390614c04565b60405180910390fd5b600073ffffffffffffffffffffffffffffffffffffffff168273ffffffffffffffffffffffffffffffffffffffff16141561202c576040517f08c379a000000000000000000000000000000000000000000000000000000000815260040161202390614c96565b60405180910390fd5b6000811161206f576040517f08c379a000000000000000000000000000000000000000000000000000000000815260040161206690614d28565b60405180910390fd5b600760008473ffffffffffffffffffffffffffffffffffffffff1673ffffffffffffffffffffffffffffffffffffffff16815260200190815260200160002060009054906101000a900460ff1680156121125750600760008373ffffffffffffffffffffffffffffffffffffffff1673ffffffffffffffffffffffffffffffffffffffff16815260200190815260200160002060009054906101000a900460ff16155b1561212757612122838383612c23565b61235e565b600760008473ffffffffffffffffffffffffffffffffffffffff1673ffffffffffffffffffffffffffffffffffffffff16815260200190815260200160002060009054906101000a900460ff161580156121ca5750600760008373ffffffffffffffffffffffffffffffffffffffff1673ffffffffffffffffffffffffffffffffffffffff16815260200190815260200160002060009054906101000a900460ff165b156121df576121da838383612f08565b61235d565b600760008473ffffffffffffffffffffffffffffffffffffffff1673ffffffffffffffffffffffffffffffffffffffff16815260200190815260200160002060009054906101000a900460ff161580156122835750600760008373ffffffffffffffffffffffffffffffffffffffff1673ffffffffffffffffffffffffffffffffffffffff16815260200190815260200160002060009054906101000a900460ff16155b15612298576122938383836131ed565b61235c565b600760008473ffffffffffffffffffffffffffffffffffffffff1673ffffffffffffffffffffffffffffffffffffffff16815260200190815260200160002060009054906101000a900460ff16801561233a5750600760008373ffffffffffffffffffffffffffffffffffffffff1673ffffffffffffffffffffffffffffffffffffffff16815260200190815260200160002060009054906101000a900460ff165b1561234f5761234a838383613444565b61235b565b61235a8383836131ed565b5b5b5b5b505050565b60008060006123706137b7565b91509150808261238091906144ec565b9250505090565b600073ffffffffffffffffffffffffffffffffffffffff168273ffffffffffffffffffffffffffffffffffffffff1614156123f7576040517f08c379a00000000000000000000000000000000000000000000000000000000081526004016123ee90614dba565b60405180910390fd5b80600460008473ffffffffffffffffffffffffffffffffffffffff1673ffffffffffffffffffffffffffffffffffffffff168152602001908152602001600020541015612479576040517f08c379a000000000000000000000000000000000000000000000000000000000815260040161247090614e4c565b60405180910390fd5b80600460008473ffffffffffffffffffffffffffffffffffffffff1673ffffffffffffffffffffffffffffffffffffffff168152602001908152602001600020546124c491906142ae565b600460008473ffffffffffffffffffffffffffffffffffffffff1673ffffffffffffffffffffffffffffffffffffffff16815260200190815260200160002081905550600073ffffffffffffffffffffffffffffffffffffffff168273ffffffffffffffffffffffffffffffffffffffff167fddf252ad1be2c89b69c2b068fc378daa952ba7f163c4a11628f55a4df523b3ef836040516125659190613e44565b60405180910390a35050565b600081116125b4576040517f08c379a00000000000000000000000000000000000000000000000000000000081526004016125ab90614eb8565b60405180910390fd5b6000600360003373ffffffffffffffffffffffffffffffffffffffff1673ffffffffffffffffffffffffffffffffffffffff168152602001908152602001600020549050600042905060008214156126125761260f33613a75565b91505b60028281548110612626576126256147f1565b5b906000526020600020906002020160010160405180608001604052803373ffffffffffffffffffffffffffffffffffffffff1681526020018581526020018381526020016000815250908060018154018082558091505060019003906000526020600020906004020160009091909190915060008201518160000160006101000a81548173ffffffffffffffffffffffffffffffffffffffff021916908373ffffffffffffffffffffffffffffffffffffffff16021790555060208201518160010155604082015181600201556060820151816003015550503373ffffffffffffffffffffffffffffffffffffffff167fb4caaf29adda3eefee3ad552a8e85058589bf834c7466cae4ee58787f70589ed84848460405161274993929190614ed8565b60405180910390a2505050565b60006001548260200151610e1084604001514261277391906142ae565b61277d91906144ec565b6127879190614f0f565b61279191906144ec565b9050919050565b600080600360003373ffffffffffffffffffffffffffffffffffffffff1673ffffffffffffffffffffffffffffffffffffffff1681526020019081526020016000205490506000600282815481106127f3576127f26147f1565b5b90600052602060002090600202016001018481548110612816576128156147f1565b5b90600052602060002090600402016040518060800160405290816000820160009054906101000a900473ffffffffffffffffffffffffffffffffffffffff1673ffffffffffffffffffffffffffffffffffffffff1673ffffffffffffffffffffffffffffffffffffffff1681526020016001820154815260200160028201548152602001600382015481525050905084816020015110156128ec576040517f08c379a00000000000000000000000000000000000000000000000000000000081526004016128e390614fdb565b60405180910390fd5b60006128f782612756565b905085826020015161290991906142ae565b8260200181815250506000826020015114156129ab5760028381548110612933576129326147f1565b5b90600052602060002090600202016001018581548110612956576129556147f1565b5b9060005260206000209060040201600080820160006101000a81549073ffffffffffffffffffffffffffffffffffffffff02191690556001820160009055600282016000905560038201600090555050612a4a565b8160200151600284815481106129c4576129c36147f1565b5b906000526020600020906002020160010186815481106129e7576129e66147f1565b5b9060005260206000209060040201600101819055504260028481548110612a1157612a106147f1565b5b90600052602060002090600202016001018681548110612a3457612a336147f1565b5b9060005260206000209060040201600201819055505b8086612a5691906142e2565b935050505092915050565b600073ffffffffffffffffffffffffffffffffffffffff168273ffffffffffffffffffffffffffffffffffffffff161415612ad1576040517f08c379a0000000000000000000000000000000000000000000000000000000008152600401612ac89061506d565b60405180910390fd5b80600460008473ffffffffffffffffffffffffffffffffffffffff1673ffffffffffffffffffffffffffffffffffffffff16815260200190815260200160002054612b1c91906142e2565b600460008473ffffffffffffffffffffffffffffffffffffffff1673ffffffffffffffffffffffffffffffffffffffff168152602001908152602001600020819055508173ffffffffffffffffffffffffffffffffffffffff16600073ffffffffffffffffffffffffffffffffffffffff167fddf252ad1be2c89b69c2b068fc378daa952ba7f163c4a11628f55a4df523b3ef83604051612bbd9190613e44565b60405180910390a35050565b6000806000806000806000612bde8989613b5c565b915091506000612bec612363565b90506000806000612bfe8d8686613baf565b92509250925082828288889a509a509a509a509a505050505050509295509295909350565b6000600960008573ffffffffffffffffffffffffffffffffffffffff1673ffffffffffffffffffffffffffffffffffffffff16815260200190815260200160002060009054906101000a900460ff1680612cc65750600960008473ffffffffffffffffffffffffffffffffffffffff1673ffffffffffffffffffffffffffffffffffffffff16815260200190815260200160002060009054906101000a900460ff165b90506000806000806000612cda8787612bc9565b9450945094509450945086600560008b73ffffffffffffffffffffffffffffffffffffffff1673ffffffffffffffffffffffffffffffffffffffff16815260200190815260200160002054612d2f91906142ae565b600560008b73ffffffffffffffffffffffffffffffffffffffff1673ffffffffffffffffffffffffffffffffffffffff1681526020019081526020016000208190555084600460008b73ffffffffffffffffffffffffffffffffffffffff1673ffffffffffffffffffffffffffffffffffffffff16815260200190815260200160002054612dbd91906142ae565b600460008b73ffffffffffffffffffffffffffffffffffffffff1673ffffffffffffffffffffffffffffffffffffffff1681526020019081526020016000208190555083600460008a73ffffffffffffffffffffffffffffffffffffffff1673ffffffffffffffffffffffffffffffffffffffff16815260200190815260200160002054612e4b91906142e2565b600460008a73ffffffffffffffffffffffffffffffffffffffff1673ffffffffffffffffffffffffffffffffffffffff16815260200190815260200160002081905550612e988382613bf8565b8773ffffffffffffffffffffffffffffffffffffffff168973ffffffffffffffffffffffffffffffffffffffff167fddf252ad1be2c89b69c2b068fc378daa952ba7f163c4a11628f55a4df523b3ef84604051612ef59190613e44565b60405180910390a3505050505050505050565b6000600960008573ffffffffffffffffffffffffffffffffffffffff1673ffffffffffffffffffffffffffffffffffffffff16815260200190815260200160002060009054906101000a900460ff1680612fab5750600960008473ffffffffffffffffffffffffffffffffffffffff1673ffffffffffffffffffffffffffffffffffffffff16815260200190815260200160002060009054906101000a900460ff165b90506000806000806000612fbf8787612bc9565b9450945094509450945084600460008b73ffffffffffffffffffffffffffffffffffffffff1673ffffffffffffffffffffffffffffffffffffffff1681526020019081526020016000205461301491906142ae565b600460008b73ffffffffffffffffffffffffffffffffffffffff1673ffffffffffffffffffffffffffffffffffffffff1681526020019081526020016000208190555081600560008a73ffffffffffffffffffffffffffffffffffffffff1673ffffffffffffffffffffffffffffffffffffffff168152602001908152602001600020546130a291906142e2565b600560008a73ffffffffffffffffffffffffffffffffffffffff1673ffffffffffffffffffffffffffffffffffffffff1681526020019081526020016000208190555083600460008a73ffffffffffffffffffffffffffffffffffffffff1673ffffffffffffffffffffffffffffffffffffffff1681526020019081526020016000205461313091906142e2565b600460008a73ffffffffffffffffffffffffffffffffffffffff1673ffffffffffffffffffffffffffffffffffffffff1681526020019081526020016000208190555061317d8382613bf8565b8773ffffffffffffffffffffffffffffffffffffffff168973ffffffffffffffffffffffffffffffffffffffff167fddf252ad1be2c89b69c2b068fc378daa952ba7f163c4a11628f55a4df523b3ef846040516131da9190613e44565b60405180910390a3505050505050505050565b6000600960008573ffffffffffffffffffffffffffffffffffffffff1673ffffffffffffffffffffffffffffffffffffffff16815260200190815260200160002060009054906101000a900460ff16806132905750600960008473ffffffffffffffffffffffffffffffffffffffff1673ffffffffffffffffffffffffffffffffffffffff16815260200190815260200160002060009054906101000a900460ff165b905060008060008060006132a48787612bc9565b9450945094509450945084600460008b73ffffffffffffffffffffffffffffffffffffffff1673ffffffffffffffffffffffffffffffffffffffff168152602001908152602001600020546132f991906142ae565b600460008b73ffffffffffffffffffffffffffffffffffffffff1673ffffffffffffffffffffffffffffffffffffffff1681526020019081526020016000208190555083600460008a73ffffffffffffffffffffffffffffffffffffffff1673ffffffffffffffffffffffffffffffffffffffff1681526020019081526020016000205461338791906142e2565b600460008a73ffffffffffffffffffffffffffffffffffffffff1673ffffffffffffffffffffffffffffffffffffffff168152602001908152602001600020819055506133d48382613bf8565b8773ffffffffffffffffffffffffffffffffffffffff168973ffffffffffffffffffffffffffffffffffffffff167fddf252ad1be2c89b69c2b068fc378daa952ba7f163c4a11628f55a4df523b3ef846040516134319190613e44565b60405180910390a3505050505050505050565b6000600960008573ffffffffffffffffffffffffffffffffffffffff1673ffffffffffffffffffffffffffffffffffffffff16815260200190815260200160002060009054906101000a900460ff16806134e75750600960008473ffffffffffffffffffffffffffffffffffffffff1673ffffffffffffffffffffffffffffffffffffffff16815260200190815260200160002060009054906101000a900460ff165b905060008060008060006134fb8787612bc9565b9450945094509450945086600560008b73ffffffffffffffffffffffffffffffffffffffff1673ffffffffffffffffffffffffffffffffffffffff1681526020019081526020016000205461355091906142ae565b600560008b73ffffffffffffffffffffffffffffffffffffffff1673ffffffffffffffffffffffffffffffffffffffff1681526020019081526020016000208190555084600460008b73ffffffffffffffffffffffffffffffffffffffff1673ffffffffffffffffffffffffffffffffffffffff168152602001908152602001600020546135de91906142ae565b600460008b73ffffffffffffffffffffffffffffffffffffffff1673ffffffffffffffffffffffffffffffffffffffff1681526020019081526020016000208190555081600560008a73ffffffffffffffffffffffffffffffffffffffff1673ffffffffffffffffffffffffffffffffffffffff1681526020019081526020016000205461366c91906142e2565b600560008a73ffffffffffffffffffffffffffffffffffffffff1673ffffffffffffffffffffffffffffffffffffffff1681526020019081526020016000208190555083600460008a73ffffffffffffffffffffffffffffffffffffffff1673ffffffffffffffffffffffffffffffffffffffff168152602001908152602001600020546136fa91906142e2565b600460008a73ffffffffffffffffffffffffffffffffffffffff1673ffffffffffffffffffffffffffffffffffffffff168152602001908152602001600020819055506137478382613bf8565b8773ffffffffffffffffffffffffffffffffffffffff168973ffffffffffffffffffffffffffffffffffffffff167fddf252ad1be2c89b69c2b068fc378daa952ba7f163c4a11628f55a4df523b3ef846040516137a49190613e44565b60405180910390a3505050505050505050565b6000806000600a54905060006706f05b59d3b2000090506000600880549050905060005b81811015613a31578360046000600884815481106137fc576137fb6147f1565b5b9060005260206000200160009054906101000a900473ffffffffffffffffffffffffffffffffffffffff1673ffffffffffffffffffffffffffffffffffffffff1673ffffffffffffffffffffffffffffffffffffffff1681526020019081526020016000205411806138ea5750826005600060088481548110613882576138816147f1565b5b9060005260206000200160009054906101000a900473ffffffffffffffffffffffffffffffffffffffff1673ffffffffffffffffffffffffffffffffffffffff1673ffffffffffffffffffffffffffffffffffffffff16815260200190815260200160002054115b1561390857600a546706f05b59d3b200009550955050505050613a71565b60046000600883815481106139205761391f6147f1565b5b9060005260206000200160009054906101000a900473ffffffffffffffffffffffffffffffffffffffff1673ffffffffffffffffffffffffffffffffffffffff1673ffffffffffffffffffffffffffffffffffffffff168152602001908152602001600020548461399191906142ae565b935060056000600883815481106139ab576139aa6147f1565b5b9060005260206000200160009054906101000a900473ffffffffffffffffffffffffffffffffffffffff1673ffffffffffffffffffffffffffffffffffffffff1673ffffffffffffffffffffffffffffffffffffffff1681526020019081526020016000205483613a1c91906142ae565b92508080613a2990614a25565b9150506137db565b506706f05b59d3b20000600a54613a4891906144ec565b831015613a6757600a546706f05b59d3b2000094509450505050613a71565b8282945094505050505b9091565b600060026001816001815401808255809150500390600052602060002090505060006001600280549050613aa991906142ae565b90508260028281548110613ac057613abf6147f1565b5b906000526020600020906002020160000160006101000a81548173ffffffffffffffffffffffffffffffffffffffff021916908373ffffffffffffffffffffffffffffffffffffffff16021790555080600360008573ffffffffffffffffffffffffffffffffffffffff1673ffffffffffffffffffffffffffffffffffffffff1681526020019081526020016000208190555080915050919050565b6000808215613b715783600091509150613ba8565b60006064600c5486613b839190614f0f565b613b8d91906144ec565b905060008186613b9d91906142ae565b905080829350935050505b9250929050565b6000806000808487613bc19190614f0f565b905060008587613bd19190614f0f565b905060008183613be191906142ae565b905082818395509550955050505093509350939050565b81600a54613c0691906142ae565b600a8190555080600b54613c1a91906142e2565b600b819055505050565b604051806040016040528060008152602001606081525090565b600080fd5b6000819050919050565b613c5681613c43565b8114613c6157600080fd5b50565b600081359050613c7381613c4d565b92915050565b600060208284031215613c8f57613c8e613c3e565b5b6000613c9d84828501613c64565b91505092915050565b600081519050919050565b600082825260208201905092915050565b60005b83811015613ce0578082015181840152602081019050613cc5565b83811115613cef576000848401525b50505050565b6000601f19601f8301169050919050565b6000613d1182613ca6565b613d1b8185613cb1565b9350613d2b818560208601613cc2565b613d3481613cf5565b840191505092915050565b60006020820190508181036000830152613d598184613d06565b905092915050565b600073ffffffffffffffffffffffffffffffffffffffff82169050919050565b6000613d8c82613d61565b9050919050565b613d9c81613d81565b8114613da757600080fd5b50565b600081359050613db981613d93565b92915050565b60008060408385031215613dd657613dd5613c3e565b5b6000613de485828601613daa565b9250506020613df585828601613c64565b9150509250929050565b60008115159050919050565b613e1481613dff565b82525050565b6000602082019050613e2f6000830184613e0b565b92915050565b613e3e81613c43565b82525050565b6000602082019050613e596000830184613e35565b92915050565b600080600060608486031215613e7857613e77613c3e565b5b6000613e8686828701613daa565b9350506020613e9786828701613daa565b9250506040613ea886828701613c64565b9150509250925092565b600060ff82169050919050565b613ec881613eb2565b82525050565b6000602082019050613ee36000830184613ebf565b92915050565b613ef281613dff565b8114613efd57600080fd5b50565b600081359050613f0f81613ee9565b92915050565b60008060408385031215613f2c57613f2b613c3e565b5b6000613f3a85828601613c64565b9250506020613f4b85828601613f00565b9150509250929050565b600060208284031215613f6b57613f6a613c3e565b5b6000613f7984828501613daa565b91505092915050565b613f8b81613d81565b82525050565b6000602082019050613fa66000830184613f82565b92915050565b60008060408385031215613fc357613fc2613c3e565b5b6000613fd185828601613daa565b9250506020613fe285828601613daa565b9150509250929050565b613ff581613c43565b82525050565b600081519050919050565b600082825260208201905092915050565b6000819050602082019050919050565b61403081613d81565b82525050565b60808201600082015161404c6000850182614027565b50602082015161405f6020850182613fec565b5060408201516140726040850182613fec565b5060608201516140856060850182613fec565b50505050565b60006140978383614036565b60808301905092915050565b6000602082019050919050565b60006140bb82613ffb565b6140c58185614006565b93506140d083614017565b8060005b838110156141015781516140e8888261408b565b97506140f3836140a3565b9250506001810190506140d4565b5085935050505092915050565b60006040830160008301516141266000860182613fec565b506020830151848203602086015261413e82826140b0565b9150508091505092915050565b60006020820190508181036000830152614165818461410e565b905092915050565b6000806040838503121561418457614183613c3e565b5b600061419285828601613daa565b92505060206141a385828601613f00565b9150509250929050565b600080604083850312156141c4576141c3613c3e565b5b60006141d285828601613c64565b92505060206141e385828601613c64565b9150509250929050565b7f4578636c75646564206164647265737365732063616e6e6f742063616c6c207460008201527f6869732066756e6374696f6e0000000000000000000000000000000000000000602082015250565b6000614249602c83613cb1565b9150614254826141ed565b604082019050919050565b600060208201905081810360008301526142788161423c565b9050919050565b7f4e487b7100000000000000000000000000000000000000000000000000000000600052601160045260246000fd5b60006142b982613c43565b91506142c483613c43565b9250828210156142d7576142d661427f565b5b828203905092915050565b60006142ed82613c43565b91506142f883613c43565b9250827fffffffffffffffffffffffffffffffffffffffffffffffffffffffffffffffff0382111561432d5761432c61427f565b5b828201905092915050565b7f4e487b7100000000000000000000000000000000000000000000000000000000600052602260045260246000fd5b6000600282049050600182168061437f57607f821691505b6020821081141561439357614392614338565b5b50919050565b7f45524332303a207472616e7366657220616d6f756e742065786365656473206160008201527f6c6c6f77616e6365000000000000000000000000000000000000000000000000602082015250565b60006143f5602883613cb1565b915061440082614399565b604082019050919050565b60006020820190508181036000830152614424816143e8565b9050919050565b7f416d6f756e74206d757374206265206c657373207468616e20746f74616c207260008201527f65666c656374696f6e7300000000000000000000000000000000000000000000602082015250565b6000614487602a83613cb1565b91506144928261442b565b604082019050919050565b600060208201905081810360008301526144b68161447a565b9050919050565b7f4e487b7100000000000000000000000000000000000000000000000000000000600052601260045260246000fd5b60006144f782613c43565b915061450283613c43565b925082614512576145116144bd565b5b828204905092915050565b7f416d6f756e74206d757374206265206c657373207468616e20737570706c7900600082015250565b6000614553601f83613cb1565b915061455e8261451d565b602082019050919050565b6000602082019050818103600083015261458281614546565b9050919050565b7f4f776e61626c653a2063616c6c6572206973206e6f7420746865206f776e6572600082015250565b60006145bf602083613cb1565b91506145ca82614589565b602082019050919050565b600060208201905081810360008301526145ee816145b2565b9050919050565b7f46656520697320746f6f20736d616c6c00000000000000000000000000000000600082015250565b600061462b601083613cb1565b9150614636826145f5565b602082019050919050565b6000602082019050818103600083015261465a8161461e565b9050919050565b7f46656520697320746f6f20626967000000000000000000000000000000000000600082015250565b6000614697600e83613cb1565b91506146a282614661565b602082019050919050565b600060208201905081810360008301526146c68161468a565b9050919050565b7f45524332303a2064656372656173656420616c6c6f77616e63652062656c6f7760008201527f207a65726f000000000000000000000000000000000000000000000000000000602082015250565b6000614729602583613cb1565b9150614734826146cd565b604082019050919050565b600060208201905081810360008301526147588161471c565b9050919050565b7f4d657461446566693a2043616e6e6f74207374616b65206d6f7265207468616e60008201527f20796f75206f776e000000000000000000000000000000000000000000000000602082015250565b60006147bb602883613cb1565b91506147c68261475f565b604082019050919050565b600060208201905081810360008301526147ea816147ae565b9050919050565b7f4e487b7100000000000000000000000000000000000000000000000000000000600052603260045260246000fd5b7f43616e6e6f74206578636c7564652073656c6620636f6e747261637400000000600082015250565b6000614856601c83613cb1565b915061486182614820565b602082019050919050565b6000602082019050818103600083015261488581614849565b9050919050565b7f4163636f756e7420697320616c7265616479206578636c756465640000000000600082015250565b60006148c2601b83613cb1565b91506148cd8261488c565b602082019050919050565b600060208201905081810360008301526148f1816148b5565b9050919050565b7f4f776e61626c653a206e6577206f776e657220697320746865207a65726f206160008201527f6464726573730000000000000000000000000000000000000000000000000000602082015250565b6000614954602683613cb1565b915061495f826148f8565b604082019050919050565b6000602082019050818103600083015261498381614947565b9050919050565b7f4163636f756e7420697320616c726561647920696e636c756465640000000000600082015250565b60006149c0601b83613cb1565b91506149cb8261498a565b602082019050919050565b600060208201905081810360008301526149ef816149b3565b9050919050565b7f4e487b7100000000000000000000000000000000000000000000000000000000600052603160045260246000fd5b6000614a3082613c43565b91507fffffffffffffffffffffffffffffffffffffffffffffffffffffffffffffffff821415614a6357614a6261427f565b5b600182019050919050565b7f45524332303a20617070726f76652066726f6d20746865207a65726f2061646460008201527f7265737300000000000000000000000000000000000000000000000000000000602082015250565b6000614aca602483613cb1565b9150614ad582614a6e565b604082019050919050565b60006020820190508181036000830152614af981614abd565b9050919050565b7f45524332303a20617070726f766520746f20746865207a65726f20616464726560008201527f7373000000000000000000000000000000000000000000000000000000000000602082015250565b6000614b5c602283613cb1565b9150614b6782614b00565b604082019050919050565b60006020820190508181036000830152614b8b81614b4f565b9050919050565b7f45524332303a207472616e736665722066726f6d20746865207a65726f20616460008201527f6472657373000000000000000000000000000000000000000000000000000000602082015250565b6000614bee602583613cb1565b9150614bf982614b92565b604082019050919050565b60006020820190508181036000830152614c1d81614be1565b9050919050565b7f45524332303a207472616e7366657220746f20746865207a65726f206164647260008201527f6573730000000000000000000000000000000000000000000000000000000000602082015250565b6000614c80602383613cb1565b9150614c8b82614c24565b604082019050919050565b60006020820190508181036000830152614caf81614c73565b9050919050565b7f5472616e7366657220616d6f756e74206d75737420626520677265617465722060008201527f7468616e207a65726f0000000000000000000000000000000000000000000000602082015250565b6000614d12602983613cb1565b9150614d1d82614cb6565b604082019050919050565b60006020820190508181036000830152614d4181614d05565b9050919050565b7f4d657461446566693a2063616e6e6f74206275726e2066726f6d207a65726f2060008201527f6164647265737300000000000000000000000000000000000000000000000000602082015250565b6000614da4602783613cb1565b9150614daf82614d48565b604082019050919050565b60006020820190508181036000830152614dd381614d97565b9050919050565b7f4d657461446566693a2043616e6e6f74206275726e206d6f7265207468616e2060008201527f746865206163636f756e74206f776e7300000000000000000000000000000000602082015250565b6000614e36603083613cb1565b9150614e4182614dda565b604082019050919050565b60006020820190508181036000830152614e6581614e29565b9050919050565b7f43616e6e6f74207374616b65206e6f7468696e67000000000000000000000000600082015250565b6000614ea2601483613cb1565b9150614ead82614e6c565b602082019050919050565b60006020820190508181036000830152614ed181614e95565b9050919050565b6000606082019050614eed6000830186613e35565b614efa6020830185613e35565b614f076040830184613e35565b949350505050565b6000614f1a82613c43565b9150614f2583613c43565b9250817fffffffffffffffffffffffffffffffffffffffffffffffffffffffffffffffff0483118215151615614f5e57614f5d61427f565b5b828202905092915050565b7f5374616b696e673a2043616e6e6f74207769746864726177206d6f726520746860008201527f616e20796f752068617665207374616b65640000000000000000000000000000602082015250565b6000614fc5603283613cb1565b9150614fd082614f69565b604082019050919050565b60006020820190508181036000830152614ff481614fb8565b9050919050565b7f48546f6b656e3a2063616e6e6f74206d696e7420746f207a65726f206164647260008201527f6573730000000000000000000000000000000000000000000000000000000000602082015250565b6000615057602383613cb1565b915061506282614ffb565b604082019050919050565b600060208201905081810360008301526150868161504a565b905091905056fea2646970667358221220a9770a39780094966b0520663cb5913bc877cfa5c381c85b582e64c6d2aea41464736f6c634300080a0033",
  "immutableReferences": {},
  "source": "// SPDX-License-Identifier: MIT\r\n\r\npragma solidity ^0.8.10;\r\nimport \"./Stakeable.sol\";\r\nimport \"./Referrals.sol\";\r\n\r\nabstract contract Context {\r\n    function _msgSender() internal view virtual returns (address payable) {\r\n        return payable(msg.sender);\r\n    }\r\n\r\n    function _msgData() internal view virtual returns (bytes memory) {\r\n        this; // silence state mutability warning without generating bytecode - see https://github.com/ethereum/solidity/issues/2691\r\n        return msg.data;\r\n    }\r\n}\r\n\r\ninterface IERC20 {\r\n    /**\r\n     * @dev Returns the amount of tokens in existence.\r\n     */\r\n    function totalSupply() external view returns (uint256);\r\n\r\n    /**\r\n     * @dev Returns the amount of tokens owned by `account`.\r\n     */\r\n    function balanceOf(address account) external view returns (uint256);\r\n\r\n    /**\r\n     * @dev Moves `amount` tokens from the caller's account to `recipient`.\r\n     *\r\n     * Returns a boolean value indicating whether the operation succeeded.\r\n     *\r\n     * Emits a {Transfer} event.\r\n     */\r\n    function transfer(address recipient, uint256 amount) external returns (bool);\r\n\r\n    /**\r\n     * @dev Returns the remaining number of tokens that `spender` will be\r\n     * allowed to spend on behalf of `owner` through {transferFrom}. This is\r\n     * zero by default.\r\n     *\r\n     * This value changes when {approve} or {transferFrom} are called.\r\n     */\r\n    function allowance(address owner, address spender) external view returns (uint256);\r\n\r\n    /**\r\n     * @dev Sets `amount` as the allowance of `spender` over the caller's tokens.\r\n     *\r\n     * Returns a boolean value indicating whether the operation succeeded.\r\n     *\r\n     * IMPORTANT: Beware that changing an allowance with this method brings the risk\r\n     * that someone may use both the old and the new allowance by unfortunate\r\n     * transaction ordering. One possible solution to mitigate this race\r\n     * condition is to first reduce the spender's allowance to 0 and set the\r\n     * desired value afterwards:\r\n     * https://github.com/ethereum/EIPs/issues/20#issuecomment-263524729\r\n     *\r\n     * Emits an {Approval} event.\r\n     */\r\n    function approve(address spender, uint256 amount) external returns (bool);\r\n\r\n    /**\r\n     * @dev Moves `amount` tokens from `sender` to `recipient` using the\r\n     * allowance mechanism. `amount` is then deducted from the caller's\r\n     * allowance.\r\n     *\r\n     * Returns a boolean value indicating whether the operation succeeded.\r\n     *\r\n     * Emits a {Transfer} event.\r\n     */\r\n    function transferFrom(address sender, address recipient, uint256 amount) external returns (bool);\r\n\r\n    /**\r\n     * @dev Emitted when `value` tokens are moved from one account (`from`) to\r\n     * another (`to`).\r\n     *\r\n     * Note that `value` may be zero.\r\n     */\r\n    event Transfer(address indexed from, address indexed to, uint256 value);\r\n\r\n    /**\r\n     * @dev Emitted when the allowance of a `spender` for an `owner` is set by\r\n     * a call to {approve}. `value` is the new allowance.\r\n     */\r\n    event Approval(address indexed owner, address indexed spender, uint256 value);\r\n}\r\n\r\nlibrary SafeMath {\r\n    /**\r\n     * @dev Returns the addition of two unsigned integers, reverting on\r\n     * overflow.\r\n     *\r\n     * Counterpart to Solidity's `+` operator.\r\n     *\r\n     * Requirements:\r\n     *\r\n     * - Addition cannot overflow.\r\n     */\r\n    function add(uint256 a, uint256 b) internal pure returns (uint256) {\r\n        uint256 c = a + b;\r\n        require(c >= a, \"SafeMath: addition overflow\");\r\n\r\n        return c;\r\n    }\r\n\r\n    /**\r\n     * @dev Returns the subtraction of two unsigned integers, reverting on\r\n     * overflow (when the result is negative).\r\n     *\r\n     * Counterpart to Solidity's `-` operator.\r\n     *\r\n     * Requirements:\r\n     *\r\n     * - Subtraction cannot overflow.\r\n     */\r\n    function sub(uint256 a, uint256 b) internal pure returns (uint256) {\r\n        return sub(a, b, \"SafeMath: subtraction overflow\");\r\n    }\r\n\r\n    /**\r\n     * @dev Returns the subtraction of two unsigned integers, reverting with custom message on\r\n     * overflow (when the result is negative).\r\n     *\r\n     * Counterpart to Solidity's `-` operator.\r\n     *\r\n     * Requirements:\r\n     *\r\n     * - Subtraction cannot overflow.\r\n     */\r\n    function sub(uint256 a, uint256 b, string memory errorMessage) internal pure returns (uint256) {\r\n        require(b <= a, errorMessage);\r\n        uint256 c = a - b;\r\n\r\n        return c;\r\n    }\r\n\r\n    /**\r\n     * @dev Returns the multiplication of two unsigned integers, reverting on\r\n     * overflow.\r\n     *\r\n     * Counterpart to Solidity's `*` operator.\r\n     *\r\n     * Requirements:\r\n     *\r\n     * - Multiplication cannot overflow.\r\n     */\r\n    function mul(uint256 a, uint256 b) internal pure returns (uint256) {\r\n        // Gas optimization: this is cheaper than requiring 'a' not being zero, but the\r\n        // benefit is lost if 'b' is also tested.\r\n        // See: https://github.com/OpenZeppelin/openzeppelin-contracts/pull/522\r\n        if (a == 0) {\r\n            return 0;\r\n        }\r\n\r\n        uint256 c = a * b;\r\n        require(c / a == b, \"SafeMath: multiplication overflow\");\r\n\r\n        return c;\r\n    }\r\n\r\n    /**\r\n     * Returns the integer division of two unsigned integers. Reverts on\r\n     * division by zero. The result is rounded towards zero.\r\n     *\r\n     * Counterpart to Solidity's `/` operator. this function uses a\r\n     * `revert` opcode (which leaves remaining gas untouched) while Solidity\r\n     * uses an invalid opcode to revert (consuming all remaining gas).\r\n     *\r\n     * Requirements:\r\n     *\r\n     *  The divisor cannot be zero.\r\n     */\r\n    function div(uint256 a, uint256 b) internal pure returns (uint256) {\r\n        return div(a, b, \"SafeMath: division by zero\");\r\n    }\r\n\r\n    /**\r\n     * Returns the integer division of two unsigned integers. Reverts with custom message on\r\n     * division by zero. The result is rounded towards zero.\r\n     *\r\n     * Counterpart to Solidity's `/` operator: this function uses a\r\n     * `revert` opcode (which leaves remaining gas untouched) while Solidity\r\n     * uses an invalid opcode to revert (consuming all remaining gas).\r\n     *\r\n     * Requirements:\r\n     *\r\n     * The divisor cannot be zero.\r\n     */\r\n    function div(uint256 a, uint256 b, string memory errorMessage) internal pure returns (uint256) {\r\n        require(b > 0, errorMessage);\r\n        uint256 c = a / b;\r\n        // assert(a == b * c + a % b); // There is no case in which this doesn't hold\r\n\r\n        return c;\r\n    }\r\n\r\n    /**\r\n     * Returns the remainder of dividing two unsigned integers. (unsigned integer modulo),\r\n     * Reverts when dividing by zero.\r\n     *\r\n     * Counterpart to Solidity's `%` operator. This function uses a `revert`\r\n     * opcode (which leaves remaining gas untouched) while Solidity uses an\r\n     * invalid opcode to revert (consuming all remaining gas).\r\n     *\r\n     * Requirements:\r\n     *\r\n     * The divisor cannot be zero.\r\n     */\r\n    function mod(uint256 a, uint256 b) internal pure returns (uint256) {\r\n        return mod(a, b, \"SafeMath: modulo by zero\");\r\n    }\r\n\r\n    /**\r\n     * Returns the remainder of dividing two unsigned integers. (unsigned integer modulo),\r\n     * Reverts with custom message when dividing by zero.\r\n     *\r\n     * Counterpart to Solidity's `%` operator. This function uses a `revert`\r\n     * opcode (which leaves remaining gas untouched) while Solidity uses an\r\n     * invalid opcode to revert (consuming all remaining gas).\r\n     *\r\n     * Requirements:\r\n     *\r\n     *  The divisor cannot be zero.\r\n     */\r\n    function mod(uint256 a, uint256 b, string memory errorMessage) internal pure returns (uint256) {\r\n        require(b != 0, errorMessage);\r\n        return a % b;\r\n    }\r\n}\r\n\r\n/**\r\n * @dev Collection of functions related to the address type\r\n */\r\nlibrary Address {\r\n    /**\r\n     * @dev Returns true if `account` is a contract.\r\n     *\r\n     * [IMPORTANT]\r\n     * ====\r\n     * It is unsafe to assume that an address for which this function returns\r\n     * false is an externally-owned account (EOA) and not a contract.\r\n     *\r\n     * Among others, `isContract` will return false for the following\r\n     * types of addresses:\r\n     *\r\n     *  - an externally-owned account\r\n     *  - a contract in construction\r\n     *  - an address where a contract will be created\r\n     *  - an address where a contract lived, but was destroyed\r\n     * ====\r\n     */\r\n    function isContract(address account) internal view returns (bool) {\r\n        // This method relies on extcodesize, which returns 0 for contracts in\r\n        // construction, since the code is only stored at the end of the\r\n        // constructor execution.\r\n\r\n        uint256 size;\r\n        // solhint-disable-next-line no-inline-assembly\r\n        assembly { size := extcodesize(account) }\r\n        return size > 0;\r\n    }\r\n\r\n    /**\r\n     * @dev Replacement for Solidity's `transfer`: sends `amount` wei to\r\n     * `recipient`, forwarding all available gas and reverting on errors.\r\n     *\r\n     * https://eips.ethereum.org/EIPS/eip-1884[EIP1884] increases the gas cost\r\n     * of certain opcodes, possibly making contracts go over the 2300 gas limit\r\n     * imposed by `transfer`, making them unable to receive funds via\r\n     * `transfer`. {sendValue} removes this limitation.\r\n     *\r\n     * https://diligence.consensys.net/posts/2019/09/stop-using-soliditys-transfer-now/[Learn more].\r\n     *\r\n     * IMPORTANT: because control is transferred to `recipient`, care must be\r\n     * taken to not create reentrancy vulnerabilities. Consider using\r\n     * {ReentrancyGuard} or the\r\n     * https://solidity.readthedocs.io/en/v0.5.11/security-considerations.html#use-the-checks-effects-interactions-pattern[checks-effects-interactions pattern].\r\n     */\r\n    function sendValue(address payable recipient, uint256 amount) internal {\r\n        require(address(this).balance >= amount, \"Address: insufficient balance\");\r\n\r\n        // solhint-disable-next-line avoid-low-level-calls, avoid-call-value\r\n        (bool success, ) = recipient.call{ value: amount }(\"\");\r\n        require(success, \"Address: unable to send value, recipient may have reverted\");\r\n    }\r\n\r\n    /**\r\n     * @dev Performs a Solidity function call using a low level `call`. A\r\n     * plain`call` is an unsafe replacement for a function call: use this\r\n     * function instead.\r\n     *\r\n     * If `target` reverts with a revert reason, it is bubbled up by this\r\n     * function (like regular Solidity function calls).\r\n     *\r\n     * Returns the raw returned data. To convert to the expected return value,\r\n     * use https://solidity.readthedocs.io/en/latest/units-and-global-variables.html?highlight=abi.decode#abi-encoding-and-decoding-functions[`abi.decode`].\r\n     *\r\n     * Requirements:\r\n     *\r\n     * - `target` must be a contract.\r\n     * - calling `target` with `data` must not revert.\r\n     *\r\n     * _Available since v3.1._\r\n     */\r\n    function functionCall(address target, bytes memory data) internal returns (bytes memory) {\r\n      return functionCall(target, data, \"Address: low-level call failed\");\r\n    }\r\n\r\n    /**\r\n     * @dev Same as {xref-Address-functionCall-address-bytes-}[`functionCall`], but with\r\n     * `errorMessage` as a fallback revert reason when `target` reverts.\r\n     *\r\n     * _Available since v3.1._\r\n     */\r\n    function functionCall(address target, bytes memory data, string memory errorMessage) internal returns (bytes memory) {\r\n        return functionCallWithValue(target, data, 0, errorMessage);\r\n    }\r\n\r\n    /**\r\n     * @dev Same as {xref-Address-functionCall-address-bytes-}[`functionCall`],\r\n     * but also transferring `value` wei to `target`.\r\n     *\r\n     * Requirements:\r\n     *\r\n     * - the calling contract must have an ETH balance of at least `value`.\r\n     * - the called Solidity function must be `payable`.\r\n     *\r\n     * _Available since v3.1._\r\n     */\r\n    function functionCallWithValue(address target, bytes memory data, uint256 value) internal returns (bytes memory) {\r\n        return functionCallWithValue(target, data, value, \"Address: low-level call with value failed\");\r\n    }\r\n\r\n    /**\r\n     * @dev Same as {xref-Address-functionCallWithValue-address-bytes-uint256-}[`functionCallWithValue`], but\r\n     * with `errorMessage` as a fallback revert reason when `target` reverts.\r\n     *\r\n     * _Available since v3.1._\r\n     */\r\n    function functionCallWithValue(address target, bytes memory data, uint256 value, string memory errorMessage) internal returns (bytes memory) {\r\n        require(address(this).balance >= value, \"Address: insufficient balance for call\");\r\n        require(isContract(target), \"Address: call to non-contract\");\r\n\r\n        // solhint-disable-next-line avoid-low-level-calls\r\n        (bool success, bytes memory returndata) = target.call{ value: value }(data);\r\n        return _verifyCallResult(success, returndata, errorMessage);\r\n    }\r\n\r\n    /**\r\n     * @dev Same as {xref-Address-functionCall-address-bytes-}[`functionCall`],\r\n     * but performing a static call.\r\n     *\r\n     * _Available since v3.3._\r\n     */\r\n    function functionStaticCall(address target, bytes memory data) internal view returns (bytes memory) {\r\n        return functionStaticCall(target, data, \"Address: low-level static call failed\");\r\n    }\r\n\r\n    /**\r\n     * @dev Same as {xref-Address-functionCall-address-bytes-string-}[`functionCall`],\r\n     * but performing a static call.\r\n     *\r\n     * _Available since v3.3._\r\n     */\r\n    function functionStaticCall(address target, bytes memory data, string memory errorMessage) internal view returns (bytes memory) {\r\n        require(isContract(target), \"Address: static call to non-contract\");\r\n\r\n        // solhint-disable-next-line avoid-low-level-calls\r\n        (bool success, bytes memory returndata) = target.staticcall(data);\r\n        return _verifyCallResult(success, returndata, errorMessage);\r\n    }\r\n\r\n    /**\r\n     * @dev Same as {xref-Address-functionCall-address-bytes-}[`functionCall`],\r\n     * but performing a delegate call.\r\n     *\r\n     * _Available since v3.4._\r\n     */\r\n    function functionDelegateCall(address target, bytes memory data) internal returns (bytes memory) {\r\n        return functionDelegateCall(target, data, \"Address: low-level delegate call failed\");\r\n    }\r\n\r\n    /**\r\n     * @dev Same as {xref-Address-functionCall-address-bytes-string-}[`functionCall`],\r\n     * but performing a delegate call.\r\n     *\r\n     * _Available since v3.4._\r\n     */\r\n    function functionDelegateCall(address target, bytes memory data, string memory errorMessage) internal returns (bytes memory) {\r\n        require(isContract(target), \"Address: delegate call to non-contract\");\r\n\r\n        // solhint-disable-next-line avoid-low-level-calls\r\n        (bool success, bytes memory returndata) = target.delegatecall(data);\r\n        return _verifyCallResult(success, returndata, errorMessage);\r\n    }\r\n\r\n    function _verifyCallResult(bool success, bytes memory returndata, string memory errorMessage) private pure returns(bytes memory) {\r\n        if (success) {\r\n            return returndata;\r\n        } else {\r\n            // Look for revert reason and bubble it up if present\r\n            if (returndata.length > 0) {\r\n                // The easiest way to bubble the revert reason is using memory via assembly\r\n\r\n                // solhint-disable-next-line no-inline-assembly\r\n                assembly {\r\n                    let returndata_size := mload(returndata)\r\n                    revert(add(32, returndata), returndata_size)\r\n                }\r\n            } else {\r\n                revert(errorMessage);\r\n            }\r\n        }\r\n    }\r\n}\r\n\r\n/**\r\n * @dev Contract module which provides a basic access control mechanism, where\r\n * there is an account (an owner) that can be granted exclusive access to\r\n * specific functions.\r\n *\r\n * By default, the owner account will be the one that deploys the contract. This\r\n * can later be changed with {transferOwnership}.\r\n *\r\n * This module is used through inheritance. It will make available the modifier\r\n * `onlyOwner`, which can be applied to your functions to restrict their use to\r\n * the owner.\r\n */\r\nabstract contract Ownable is Context {\r\n    address private _owner;\r\n\r\n    event OwnershipTransferred(address indexed previousOwner, address indexed newOwner);\r\n\r\n    /**\r\n     * @dev Initializes the contract setting the deployer as the initial owner.\r\n     */\r\n    constructor () {\r\n        address msgSender = _msgSender();\r\n        _owner = msgSender;\r\n        emit OwnershipTransferred(address(0), msgSender);\r\n    }\r\n\r\n    /**\r\n     * @dev Returns the address of the current owner.\r\n     */\r\n    function owner() public view virtual returns (address) {\r\n        return _owner;\r\n    }\r\n\r\n    /**\r\n     * @dev Throws if called by any account other than the owner.\r\n     */\r\n    modifier onlyOwner() {\r\n        require(owner() == _msgSender(), \"Ownable: caller is not the owner\");\r\n        _;\r\n    }\r\n\r\n    /**\r\n     * @dev Leaves the contract without owner. It will not be possible to call\r\n     * `onlyOwner` functions anymore. Can only be called by the current owner.\r\n     *\r\n     * NOTE: Renouncing ownership will leave the contract without an owner,\r\n     * thereby removing any functionality that is only available to the owner.\r\n     */\r\n    function renounceOwnership() public virtual onlyOwner {\r\n        emit OwnershipTransferred(_owner, address(0));\r\n        _owner = address(0);\r\n    }\r\n\r\n    /**\r\n     * @dev Transfers ownership of the contract to a new account (`newOwner`).\r\n     * Can only be called by the current owner.\r\n     */\r\n    function transferOwnership(address newOwner) public virtual onlyOwner {\r\n        require(newOwner != address(0), \"Ownable: new owner is the zero address\");\r\n        emit OwnershipTransferred(_owner, newOwner);\r\n        _owner = newOwner;\r\n    }\r\n}\r\n\r\n\r\ncontract MetaDefi is Context, IERC20, Ownable, Stakeable {\r\n    using Address for address;\r\n\r\n    mapping(address => uint256) private _rOwned;\r\n    mapping(address => uint256) private _tOwned;\r\n    mapping(address => mapping(address => uint256)) private _allowances;\r\n\r\n    mapping(address => bool) private _isExcluded;\r\n    address[] private _excluded;\r\n    mapping(address => bool) private _isFeeless;\r\n\r\n    uint256 private constant MAX = ~uint256(0);\r\n    uint256 private constant _tTotal = 500 * (10 ** 6) * (10**9);\r\n    uint256 private _rTotal = (MAX - (MAX % _tTotal));\r\n    uint256 private _tFeeTotal;\r\n    uint256 private _tFeePercent = 2;\r\n\r\n    string private _name = 'MetaDefi';\r\n    string private _symbol = 'MTD';\r\n    uint8 private _decimals = 9;\r\n\r\n    event MarkedFeeless(address indexed account, bool isFeeless);\r\n    \r\n    constructor () {\r\n        _rOwned[_msgSender()] = _rTotal;\r\n        _isFeeless[_msgSender()] = true;\r\n        emit Transfer(address(0), _msgSender(), _tTotal);\r\n        emit MarkedFeeless(_msgSender(), true);\r\n    }\r\n\r\n    function name() public view returns (string memory) {\r\n        return _name;\r\n    }\r\n\r\n    function symbol() public view returns (string memory) {\r\n        return _symbol;\r\n    }\r\n\r\n    function decimals() public view returns (uint8) {\r\n        return _decimals;\r\n    }\r\n\r\n    function totalSupply() public pure override returns (uint256) {\r\n        return _tTotal;\r\n    }\r\n\r\n    function balanceOf(address account) external view override returns (uint256) {\r\n        if (_isExcluded[account]) return _tOwned[account];\r\n        return tokenFromReflection(_rOwned[account]);\r\n    }\r\n\r\n    function transfer(address recipient, uint256 amount) external override returns (bool) {\r\n        _transfer(_msgSender(), recipient, amount);\r\n        return true;\r\n    }\r\n\r\n    function allowance(address owner, address spender) external view override returns (uint256) {\r\n        return _allowances[owner][spender];\r\n    }\r\n\r\n    function approve(address spender, uint256 amount) external override returns (bool) {\r\n        _approve(_msgSender(), spender, amount);\r\n        return true;\r\n    }\r\n\r\n    function transferFrom(address sender, address recipient, uint256 amount) external override returns (bool) {\r\n        _transfer(sender, recipient, amount);\r\n\r\n        uint256 currentAllowance = _allowances[sender][_msgSender()];\r\n        require(currentAllowance >= amount, \"ERC20: transfer amount exceeds allowance\");\r\n        _approve(sender, _msgSender(), currentAllowance - amount);\r\n\r\n        return true;\r\n    }\r\n\r\n    function increaseAllowance(address spender, uint256 addedValue) external virtual returns (bool) {\r\n        _approve(_msgSender(), spender, _allowances[_msgSender()][spender] + addedValue);\r\n        return true;\r\n    }\r\n\r\n    function decreaseAllowance(address spender, uint256 subtractedValue) external virtual returns (bool) {\r\n        uint256 currentAllowance = _allowances[_msgSender()][spender];\r\n        require(currentAllowance >= subtractedValue, \"ERC20: decreased allowance below zero\");\r\n        _approve(_msgSender(), spender, currentAllowance - subtractedValue);\r\n\r\n        return true;\r\n    }\r\n\r\n    function isExcluded(address account) public view returns (bool) {\r\n        return _isExcluded[account];\r\n    }\r\n\r\n    function isFeeless(address account) public view returns (bool) {\r\n        return _isFeeless[account];\r\n    }\r\n\r\n    function totalFees() public view returns (uint256) {\r\n        return _tFeeTotal;\r\n    }\r\n\r\n    function reflect(uint256 tAmount) external {\r\n        address sender = _msgSender();\r\n        require(!_isExcluded[sender], \"Excluded addresses cannot call this function\");\r\n        (uint256 rAmount,,,,) = _getValues(tAmount);\r\n        _rOwned[sender] = _rOwned[sender] - rAmount;\r\n        _rTotal = _rTotal - rAmount;\r\n        _tFeeTotal = _tFeeTotal + tAmount;\r\n    }\r\n\r\n    function reflectionFromToken(uint256 tAmount, bool deductTransferFee) public view returns (uint256) {\r\n        require(tAmount <= _tTotal, \"Amount must be less than supply\");\r\n        if (!deductTransferFee) {\r\n            (uint256 rAmount,,,,) = _getValues(tAmount);\r\n            return rAmount;\r\n        } else {\r\n            (,uint256 rTransferAmount,,,) = _getValues(tAmount);\r\n            return rTransferAmount;\r\n        }\r\n    }\r\n\r\n    function tokenFromReflection(uint256 rAmount) public view returns (uint256) {\r\n        require(rAmount <= _rTotal, \"Amount must be less than total reflections\");\r\n        uint256 currentRate = _getRate();\r\n        return rAmount / currentRate;\r\n    }\r\n\r\n    function excludeAccount(address account) external onlyOwner() {\r\n        require(account != address(this), \"Cannot exclude self contract\");\r\n        require(!_isExcluded[account], \"Account is already excluded\");\r\n        if (_rOwned[account] > 0) {\r\n            _tOwned[account] = tokenFromReflection(_rOwned[account]);\r\n        }\r\n        _isExcluded[account] = true;\r\n        _excluded.push(account);\r\n    }\r\n\r\n    function includeAccount(address account) external onlyOwner() {\r\n        require(_isExcluded[account], \"Account is already included\");\r\n        uint length = _excluded.length;\r\n        for (uint256 i = 0; i < length; i++) {\r\n            if (_excluded[i] == account) {\r\n                _excluded[i] = _excluded[_excluded.length - 1];\r\n                _tOwned[account] = 0;\r\n                _isExcluded[account] = false;\r\n                _excluded.pop();\r\n                break;\r\n            }\r\n        }\r\n    }\r\n\r\n    function setFeeless(address account, bool isFeeless_) external onlyOwner() {\r\n        _isFeeless[account] = isFeeless_;\r\n        emit MarkedFeeless(account, isFeeless_);\r\n    }\r\n\r\n    function _approve(address owner, address spender, uint256 amount) private {\r\n        require(owner != address(0), \"ERC20: approve from the zero address\");\r\n        require(spender != address(0), \"ERC20: approve to the zero address\");\r\n\r\n        _allowances[owner][spender] = amount;\r\n        emit Approval(owner, spender, amount);\r\n    }\r\n\r\n    function _transfer(address sender, address recipient, uint256 amount) private {\r\n        require(sender != address(0), \"ERC20: transfer from the zero address\");\r\n        require(recipient != address(0), \"ERC20: transfer to the zero address\");\r\n        require(amount > 0, \"Transfer amount must be greater than zero\");\r\n        if (_isExcluded[sender] && !_isExcluded[recipient]) {\r\n            _transferFromExcluded(sender, recipient, amount);\r\n        } else if (!_isExcluded[sender] && _isExcluded[recipient]) {\r\n            _transferToExcluded(sender, recipient, amount);\r\n        } else if (!_isExcluded[sender] && !_isExcluded[recipient]) {\r\n            _transferStandard(sender, recipient, amount);\r\n        } else if (_isExcluded[sender] && _isExcluded[recipient]) {\r\n            _transferBothExcluded(sender, recipient, amount);\r\n        } else {\r\n            _transferStandard(sender, recipient, amount);\r\n        }\r\n    }\r\n\r\n    function _transferStandard(address sender, address recipient, uint256 tAmount) private {\r\n        bool isFeelessTx = _isFeeless[sender] || _isFeeless[recipient];\r\n        (uint256 rAmount, uint256 rTransferAmount, uint256 rFee, uint256 tTransferAmount, uint256 tFee) = _getValues(tAmount, isFeelessTx);\r\n        _rOwned[sender] = _rOwned[sender] - rAmount;\r\n        _rOwned[recipient] = _rOwned[recipient] + rTransferAmount;\r\n        _reflectFee(rFee, tFee);\r\n        emit Transfer(sender, recipient, tTransferAmount);\r\n    }\r\n\r\n    function _transferToExcluded(address sender, address recipient, uint256 tAmount) private {\r\n        bool isFeelessTx = _isFeeless[sender] || _isFeeless[recipient];\r\n        (uint256 rAmount, uint256 rTransferAmount, uint256 rFee, uint256 tTransferAmount, uint256 tFee) = _getValues(tAmount, isFeelessTx);\r\n        _rOwned[sender] = _rOwned[sender] - rAmount;\r\n        _tOwned[recipient] = _tOwned[recipient] + tTransferAmount;\r\n        _rOwned[recipient] = _rOwned[recipient] + rTransferAmount;\r\n        _reflectFee(rFee, tFee);\r\n        emit Transfer(sender, recipient, tTransferAmount);\r\n    }\r\n\r\n    function _transferFromExcluded(address sender, address recipient, uint256 tAmount) private {\r\n        bool isFeelessTx = _isFeeless[sender] || _isFeeless[recipient];\r\n        (uint256 rAmount, uint256 rTransferAmount, uint256 rFee, uint256 tTransferAmount, uint256 tFee) = _getValues(tAmount, isFeelessTx);\r\n        _tOwned[sender] = _tOwned[sender] - tAmount;\r\n        _rOwned[sender] = _rOwned[sender] - rAmount;\r\n        _rOwned[recipient] = _rOwned[recipient] + rTransferAmount;\r\n        _reflectFee(rFee, tFee);\r\n        emit Transfer(sender, recipient, tTransferAmount);\r\n    }\r\n\r\n    function _transferBothExcluded(address sender, address recipient, uint256 tAmount) private {\r\n        bool isFeelessTx = _isFeeless[sender] || _isFeeless[recipient];\r\n        (uint256 rAmount, uint256 rTransferAmount, uint256 rFee, uint256 tTransferAmount, uint256 tFee) = _getValues(tAmount, isFeelessTx);\r\n        _tOwned[sender] = _tOwned[sender] - tAmount;\r\n        _rOwned[sender] = _rOwned[sender] - rAmount;\r\n        _tOwned[recipient] = _tOwned[recipient] + tTransferAmount;\r\n        _rOwned[recipient] = _rOwned[recipient] + rTransferAmount;\r\n        _reflectFee(rFee, tFee);\r\n        emit Transfer(sender, recipient, tTransferAmount);\r\n    }\r\n\r\n    function _reflectFee(uint256 rFee, uint256 tFee) private {\r\n        _rTotal = _rTotal - rFee;\r\n        _tFeeTotal = _tFeeTotal + tFee;\r\n    }\r\n\r\n    function _getValues(uint256 tAmount) private view returns (uint256, uint256, uint256, uint256, uint256) {\r\n        return _getValues(tAmount, false);\r\n    }\r\n\r\n    function _getValues(uint256 tAmount, bool isFeeless_) private view returns (uint256, uint256, uint256, uint256, uint256) {\r\n        (uint256 tTransferAmount, uint256 tFee) = _getTValues(tAmount, isFeeless_);\r\n        uint256 currentRate = _getRate();\r\n        (uint256 rAmount, uint256 rTransferAmount, uint256 rFee) = _getRValues(tAmount, tFee, currentRate);\r\n        return (rAmount, rTransferAmount, rFee, tTransferAmount, tFee);\r\n    }\r\n\r\n    function _getTValues(uint256 tAmount, bool isFeeless_) private view returns (uint256, uint256) {\r\n        if (isFeeless_) {\r\n            return (tAmount, 0);\r\n        }\r\n\r\n        uint256 tFee = (tAmount * _tFeePercent) / 100;\r\n        uint256 tTransferAmount = tAmount - tFee;\r\n        return (tTransferAmount, tFee);\r\n    }\r\n\r\n    function _getRValues(uint256 tAmount, uint256 tFee, uint256 currentRate) private pure returns (uint256, uint256, uint256) {\r\n        uint256 rAmount = tAmount * currentRate;\r\n        uint256 rFee = tFee * currentRate;\r\n        uint256 rTransferAmount = rAmount - rFee;\r\n        return (rAmount, rTransferAmount, rFee);\r\n    }\r\n\r\n    function _getRate() private view returns (uint256) {\r\n        (uint256 rSupply, uint256 tSupply) = _getCurrentSupply();\r\n        return rSupply / tSupply;\r\n    }\r\n\r\n    function _getCurrentSupply() private view returns (uint256, uint256) {\r\n        uint256 rSupply = _rTotal;\r\n        uint256 tSupply = _tTotal;\r\n        uint length = _excluded.length;\r\n        for (uint256 i = 0; i < length; i++) {\r\n            if (_rOwned[_excluded[i]] > rSupply || _tOwned[_excluded[i]] > tSupply) return (_rTotal, _tTotal);\r\n            rSupply = rSupply - _rOwned[_excluded[i]];\r\n            tSupply = tSupply - _tOwned[_excluded[i]];\r\n        }\r\n        if (rSupply < _rTotal / _tTotal) return (_rTotal, _tTotal);\r\n        return (rSupply, tSupply);\r\n    }\r\n\r\n    function setFeePercent(uint256 fee) external onlyOwner {\r\n        require(fee >= 1, 'Fee is too small');\r\n        require(fee <= 10, 'Fee is too big');\r\n        _tFeePercent = fee;\r\n    }\r\n\r\n/**\r\n  * @notice _burn will destroy tokens from an address inputted and then decrease total supply\r\n  * An Transfer event will emit with receiever set to zero address\r\n  * \r\n  * Requires \r\n  * - Account cannot be zero\r\n  * - Account balance has to be bigger or equal to amount\r\n  */\r\n  function _burn(address account, uint256 amount) internal {\r\n    require(account != address(0), \"MetaDefi: cannot burn from zero address\");\r\n    require(_rOwned[account] >= amount, \"MetaDefi: Cannot burn more than the account owns\");\r\n\r\n    // Remove the amount from the account balance\r\n    _rOwned[account] = _rOwned[account] - amount;\r\n    // Decrease totalSupply\r\n    // Replace _tTotal with _tTotal\r\n    // _tTotal = _tTotal - amount;\r\n    // Emit event, use zero address as reciever\r\n    emit Transfer(account, address(0), amount);\r\n  }\r\n  /**\r\n  * @notice burn is used to destroy tokens on an address\r\n  * \r\n  * See {_burn}\r\n  * Requires\r\n  *   - msg.sender must be the token owner\r\n  *\r\n   */\r\n  function burn(address account, uint256 amount) public onlyOwner returns(bool) {\r\n    _burn(account, amount);\r\n    return true;\r\n  }\r\n\r\n/**\r\n  * @notice _mint will create tokens on the address inputted and then increase the total supply\r\n  *\r\n  * It will also emit an Transfer event, with sender set to zero address (adress(0))\r\n  * \r\n  * Requires that the address that is recieveing the tokens is not zero address\r\n  */\r\n  function _mint(address account, uint256 amount) internal {\r\n    require(account != address(0), \"HToken: cannot mint to zero address\");\r\n\r\n    // Increase total supply\r\n    // _tTotal = _tTotal + (amount);\r\n    // Add amount to the account balance using the balance mapping\r\n    _rOwned[account] = _rOwned[account] + amount;\r\n    // Emit our event to log the action\r\n    emit Transfer(address(0), account, amount);\r\n  }\r\n    /**\r\n    * Add functionality like burn to the _stake afunction\r\n    *\r\n     */\r\n    function stake(uint256 _amount) public {\r\n      // Make sure staker actually is good for it\r\n    //   verify if _tOwned or _rOwned later. ...................\r\n      require(_amount < _rOwned[msg.sender], \"MetaDefi: Cannot stake more than you own\");\r\n\r\n        _stake(_amount);\r\n                // Burn the amount of tokens on the sender\r\n        _burn(msg.sender, _amount);\r\n    }\r\n\r\n    /**\r\n    * @notice withdrawStake is used to withdraw stakes from the account holder\r\n     */\r\n     \r\n    function withdrawStake(uint256 amount, uint256 stake_index)  public {\r\n\r\n      uint256 amount_to_mint = _withdrawStake(amount, stake_index);\r\n      // Return staked tokens to user\r\n      _mint(msg.sender, amount_to_mint);\r\n    }\r\n\r\n\r\n}\r\n\r\ncontract MetaDefiSale {\r\n    address admin;\r\n    MetaDefi public tokenContract;\r\n    uint256 public tokenPrice;\r\n    uint256 public tokensSold;\r\n\r\n    event Sell(address _buyer, uint256 _amount);\r\n\r\n    function MetaDefiTokenSale(MetaDefi _tokenContract, uint256 _tokenPrice) public {\r\n        admin = msg.sender;\r\n        tokenContract = _tokenContract;\r\n        tokenPrice = _tokenPrice;\r\n    }\r\n\r\n    function multiply(uint x, uint y) internal pure returns (uint z) {\r\n        require(y == 0 || (z = x * y) / y == x);\r\n    }\r\n\r\n    function buyTokens(uint256 _numberOfTokens) public payable {\r\n        require(msg.value == multiply(_numberOfTokens, tokenPrice));\r\n        require(tokenContract.balanceOf(address(this)) >= _numberOfTokens);\r\n        require(tokenContract.transfer(msg.sender, _numberOfTokens));\r\n\r\n        tokensSold += _numberOfTokens;\r\n\r\n        emit Sell(msg.sender, _numberOfTokens);\r\n    }\r\n\r\n    function endSale() public {\r\n        require(msg.sender == admin);\r\n        require(tokenContract.transfer(admin, tokenContract.balanceOf(address(this))));\r\n\r\n        // UPDATE: Let's not destroy the contract here\r\n        // Just transfer the balance to the admin\r\n        payable(admin).transfer(address(this).balance);\r\n    }\r\n}",
  "sourcePath": "C:\\xampp\\htdocs\\metadefi\\contracts\\MetaDefi.sol",
  "compiler": {
    "name": "solc",
    "version": "0.8.10+commit.fc410830.Emscripten.clang"
  },
  "schemaVersion": "3.4.4",
  "updatedAt": "2022-01-03T06:03:45.634Z",
  "networkType": "ethereum",
  "devdoc": {
    "kind": "dev",
    "methods": {
      "allowance(address,address)": {
        "details": "Returns the remaining number of tokens that `spender` will be allowed to spend on behalf of `owner` through {transferFrom}. This is zero by default. This value changes when {approve} or {transferFrom} are called."
      },
      "approve(address,uint256)": {
        "details": "Sets `amount` as the allowance of `spender` over the caller's tokens. Returns a boolean value indicating whether the operation succeeded. IMPORTANT: Beware that changing an allowance with this method brings the risk that someone may use both the old and the new allowance by unfortunate transaction ordering. One possible solution to mitigate this race condition is to first reduce the spender's allowance to 0 and set the desired value afterwards: https://github.com/ethereum/EIPs/issues/20#issuecomment-263524729 Emits an {Approval} event."
      },
      "balanceOf(address)": {
        "details": "Returns the amount of tokens owned by `account`."
      },
      "owner()": {
        "details": "Returns the address of the current owner."
      },
      "renounceOwnership()": {
        "details": "Leaves the contract without owner. It will not be possible to call `onlyOwner` functions anymore. Can only be called by the current owner. NOTE: Renouncing ownership will leave the contract without an owner, thereby removing any functionality that is only available to the owner."
      },
      "totalSupply()": {
        "details": "Returns the amount of tokens in existence."
      },
      "transfer(address,uint256)": {
        "details": "Moves `amount` tokens from the caller's account to `recipient`. Returns a boolean value indicating whether the operation succeeded. Emits a {Transfer} event."
      },
      "transferFrom(address,address,uint256)": {
        "details": "Moves `amount` tokens from `sender` to `recipient` using the allowance mechanism. `amount` is then deducted from the caller's allowance. Returns a boolean value indicating whether the operation succeeded. Emits a {Transfer} event."
      },
      "transferOwnership(address)": {
        "details": "Transfers ownership of the contract to a new account (`newOwner`). Can only be called by the current owner."
      }
    },
    "version": 1
  },
  "userdoc": {
    "events": {
      "Staked(address,uint256,uint256,uint256)": {
        "notice": "Staked event is triggered whenever a user stakes tokens, address is indexed to make it filterable"
      }
    },
    "kind": "user",
    "methods": {
      "burn(address,uint256)": {
        "notice": "burn is used to destroy tokens on an address  See {_burn} Requires   - msg.sender must be the token owner"
      },
      "hasStake(address)": {
        "notice": "hasStake is used to check if a account has stakes and the total amount along with all the seperate stakes"
      },
      "stake(uint256)": {
        "notice": "Add functionality like burn to the _stake afunction"
      },
      "withdrawStake(uint256,uint256)": {
        "notice": "withdrawStake is used to withdraw stakes from the account holder"
      }
    },
    "version": 1
  }
}